{
  "contractName": "Transaction",
  "abi": [
    {
      "anonymous": false,
      "inputs": [
        {
          "indexed": true,
          "internalType": "address",
          "name": "sender",
          "type": "address"
        },
        {
          "indexed": true,
          "internalType": "address",
          "name": "receiver",
          "type": "address"
        },
        {
          "indexed": false,
          "internalType": "uint256",
          "name": "amount",
          "type": "uint256"
        }
      ],
      "name": "TransactionSent",
      "type": "event"
    },
    {
      "inputs": [
        {
          "internalType": "address",
          "name": "receiver",
          "type": "address"
        }
      ],
      "name": "sendTransaction",
      "outputs": [],
      "stateMutability": "payable",
      "type": "function",
      "payable": true
    }
  ],
  "bytecode": "0x608060405234801561001057600080fd5b50610293806100206000396000f3fe60806040526004361061001e5760003560e01c80632bd123fe14610023575b600080fd5b61003d60048036038101906100389190610146565b61003f565b005b60003411610082576040517f08c379a0000000000000000000000000000000000000000000000000000000008152600401610079906101be565b60405180910390fd5b8073ffffffffffffffffffffffffffffffffffffffff166108fc349081150290604051600060405180830381858888f193505050501580156100c8573d6000803e3d6000fd5b508073ffffffffffffffffffffffffffffffffffffffff163373ffffffffffffffffffffffffffffffffffffffff167f09305666a7e2df9637be4c1799541cc5616f337b7433060312e6b79d549d8fd83460405161012691906101de565b60405180910390a350565b60008135905061014081610246565b92915050565b60006020828403121561015857600080fd5b600061016684828501610131565b91505092915050565b600061017c601f836101f9565b91507f416d6f756e742073686f756c642062652067726561746572207468616e2030006000830152602082019050919050565b6101b88161023c565b82525050565b600060208201905081810360008301526101d78161016f565b9050919050565b60006020820190506101f360008301846101af565b92915050565b600082825260208201905092915050565b60006102158261021c565b9050919050565b600073ffffffffffffffffffffffffffffffffffffffff82169050919050565b6000819050919050565b61024f8161020a565b811461025a57600080fd5b5056fea2646970667358221220c8dcf31d53b6c5c12b90b184c60ecb165aeb24b9ab4cc1c1244421c4b36bd92d64736f6c63430008000033",
  "immutableReferences": {},
  "source": "// SPDX-License-Identifier: MIT\npragma solidity ^0.8.0;\n\ncontract Transaction {\n\n    event TransactionSent(address indexed sender, address indexed receiver, uint amount);\n\n    function sendTransaction(address receiver) public payable {\n        require(msg.value > 0, \"Amount should be greater than 0\");\n\n        // Mengirim dana ke penerima\n        payable(receiver).transfer(msg.value);\n\n        emit TransactionSent(msg.sender, receiver, msg.value);\n    }\n}\n",
  "sourcePath": "C:\\laragon\\www\\send_receive_amount_blockchain\\truffle\\contracts\\Transaction.sol",
  "compiler": {
    "name": "solc",
    "version": "0.8.0+commit.c7dfd78e.Emscripten.clang"
  },
  "schemaVersion": "3.4.16",
  "updatedAt": "2024-12-01T12:11:20.706Z",
  "networkType": "ethereum",
  "devdoc": {
    "kind": "dev",
    "methods": {},
    "version": 1
  },
  "userdoc": {
    "kind": "user",
    "methods": {},
    "version": 1
  }
}